:1000000018C030C02FC02EC02DC02CC02CC02AC09C
:1000100029C028C027C026C025C024C023C022C0B4
:1000200021C020C01FC01EC01DC00000001040081D
:10003000040011241FBECFEDCDBF10E0A0E6B0E05C
:10004000E2E7F2E002C005900D92A436B107D9F7BD
:1000500020E0A4E6B0E001C01D92A437B207E1F7AA
:10006000C7D005C1CDCF1F920F920FB60F921124AA
:100070002F933F934F935F938F939F93EF93FF93B0
:1000800080917300882321F081508093730079C0A0
:100090008AB38C7F8ABB87B3817887BB81B3817E2B
:1000A00081BB8BB38C7F8BBB88B3817888BB82B3D9
:1000B000817E82BB80916000882321F081508093F3
:1000C00060005FC08091660081115BC0E0916100BB
:1000D000F0916200CF0101969093620080936100DD
:1000E0002081019690936200809361003181522FAC
:1000F000529556955695537090916500892F90E0D2
:10010000FC01E25DFF4F4491FC01E65DFF4F8491ED
:100110009AB3952B9ABB97B3932B942B97BB91B320
:10012000922B982B91BB9BB35095592B5BBBE8B39B
:10013000309534233E2B38BBE2B3209582238E2B9F
:1001400082BBE0916100F0916200CF010196909333
:1001500062008093610080818093730080E48093CB
:100160006000809165008F5F843018F48093650093
:1001700008C01092650087E690E09093620080933B
:100180006100FF91EF919F918F915F914F913F910E
:100190002F910F900FBE0F901F901895EF92FF9226
:1001A0000F931F93CF93082F81E080936600862FD3
:1001B00090E063E070E043D089599F4F7C01C3E039
:1001C00010E0C150C80163E070E039D08C0F911D80
:1001D0008050904045D0F70181937F01C111F1CF4C
:1001E00010926600CF911F910F91FF90EF900895AC
:1001F00083B7816083BF89B7826089BF12BE2FE752
:1002000088E391E0215080409040E1F700C0000079
:100210007894D0E0C0E06C2F8C2F8D0FBFDFCF5FC4
:10022000C430C9F72FEF89E698E121508040904013
:10023000E1F700C00000DF5FDD3161F7EACF0024A5
:10024000552704C0080E591F880F991F009729F0E1
:1002500076956795B8F37105B9F7802D952F0895B8
:10026000E199FECF8EBBE09A99278DB30895F8945B
:02027000FFCFBE
:0402720040670000E1
:00000001FF
